{
  "_format": "hh-sol-artifact-1",
  "contractName": "NFT",
  "sourceName": "contracts/NFT.sol",
  "abi": [
    {
      "inputs": [
        {
          "internalType": "address",
          "name": "marketplaceAddress",
          "type": "address"
        }
      ],
      "stateMutability": "nonpayable",
      "type": "constructor"
    },
    {
      "anonymous": false,
      "inputs": [
        {
          "indexed": true,
          "internalType": "address",
          "name": "owner",
          "type": "address"
        },
        {
          "indexed": true,
          "internalType": "address",
          "name": "approved",
          "type": "address"
        },
        {
          "indexed": true,
          "internalType": "uint256",
          "name": "tokenId",
          "type": "uint256"
        }
      ],
      "name": "Approval",
      "type": "event"
    },
    {
      "anonymous": false,
      "inputs": [
        {
          "indexed": true,
          "internalType": "address",
          "name": "owner",
          "type": "address"
        },
        {
          "indexed": true,
          "internalType": "address",
          "name": "operator",
          "type": "address"
        },
        {
          "indexed": false,
          "internalType": "bool",
          "name": "approved",
          "type": "bool"
        }
      ],
      "name": "ApprovalForAll",
      "type": "event"
    },
    {
      "anonymous": false,
      "inputs": [
        {
          "indexed": true,
          "internalType": "address",
          "name": "from",
          "type": "address"
        },
        {
          "indexed": true,
          "internalType": "address",
          "name": "to",
          "type": "address"
        },
        {
          "indexed": true,
          "internalType": "uint256",
          "name": "tokenId",
          "type": "uint256"
        }
      ],
      "name": "Transfer",
      "type": "event"
    },
    {
      "inputs": [
        {
          "internalType": "address",
          "name": "to",
          "type": "address"
        },
        {
          "internalType": "uint256",
          "name": "tokenId",
          "type": "uint256"
        }
      ],
      "name": "approve",
      "outputs": [],
      "stateMutability": "nonpayable",
      "type": "function"
    },
    {
      "inputs": [
        {
          "internalType": "address",
          "name": "owner",
          "type": "address"
        }
      ],
      "name": "balanceOf",
      "outputs": [
        {
          "internalType": "uint256",
          "name": "",
          "type": "uint256"
        }
      ],
      "stateMutability": "view",
      "type": "function"
    },
    {
      "inputs": [],
      "name": "contractAddress",
      "outputs": [
        {
          "internalType": "address",
          "name": "",
          "type": "address"
        }
      ],
      "stateMutability": "view",
      "type": "function"
    },
    {
      "inputs": [
        {
          "internalType": "string",
          "name": "tokenURI",
          "type": "string"
        }
      ],
      "name": "createToken",
      "outputs": [
        {
          "internalType": "uint256",
          "name": "",
          "type": "uint256"
        }
      ],
      "stateMutability": "nonpayable",
      "type": "function"
    },
    {
      "inputs": [
        {
          "internalType": "uint256",
          "name": "tokenId",
          "type": "uint256"
        }
      ],
      "name": "getApproved",
      "outputs": [
        {
          "internalType": "address",
          "name": "",
          "type": "address"
        }
      ],
      "stateMutability": "view",
      "type": "function"
    },
    {
      "inputs": [
        {
          "internalType": "address",
          "name": "owner",
          "type": "address"
        },
        {
          "internalType": "address",
          "name": "operator",
          "type": "address"
        }
      ],
      "name": "isApprovedForAll",
      "outputs": [
        {
          "internalType": "bool",
          "name": "",
          "type": "bool"
        }
      ],
      "stateMutability": "view",
      "type": "function"
    },
    {
      "inputs": [],
      "name": "name",
      "outputs": [
        {
          "internalType": "string",
          "name": "",
          "type": "string"
        }
      ],
      "stateMutability": "view",
      "type": "function"
    },
    {
      "inputs": [
        {
          "internalType": "uint256",
          "name": "tokenId",
          "type": "uint256"
        }
      ],
      "name": "ownerOf",
      "outputs": [
        {
          "internalType": "address",
          "name": "",
          "type": "address"
        }
      ],
      "stateMutability": "view",
      "type": "function"
    },
    {
      "inputs": [
        {
          "internalType": "address",
          "name": "from",
          "type": "address"
        },
        {
          "internalType": "address",
          "name": "to",
          "type": "address"
        },
        {
          "internalType": "uint256",
          "name": "tokenId",
          "type": "uint256"
        }
      ],
      "name": "safeTransferFrom",
      "outputs": [],
      "stateMutability": "nonpayable",
      "type": "function"
    },
    {
      "inputs": [
        {
          "internalType": "address",
          "name": "from",
          "type": "address"
        },
        {
          "internalType": "address",
          "name": "to",
          "type": "address"
        },
        {
          "internalType": "uint256",
          "name": "tokenId",
          "type": "uint256"
        },
        {
          "internalType": "bytes",
          "name": "_data",
          "type": "bytes"
        }
      ],
      "name": "safeTransferFrom",
      "outputs": [],
      "stateMutability": "nonpayable",
      "type": "function"
    },
    {
      "inputs": [
        {
          "internalType": "address",
          "name": "operator",
          "type": "address"
        },
        {
          "internalType": "bool",
          "name": "approved",
          "type": "bool"
        }
      ],
      "name": "setApprovalForAll",
      "outputs": [],
      "stateMutability": "nonpayable",
      "type": "function"
    },
    {
      "inputs": [
        {
          "internalType": "bytes4",
          "name": "interfaceId",
          "type": "bytes4"
        }
      ],
      "name": "supportsInterface",
      "outputs": [
        {
          "internalType": "bool",
          "name": "",
          "type": "bool"
        }
      ],
      "stateMutability": "view",
      "type": "function"
    },
    {
      "inputs": [],
      "name": "symbol",
      "outputs": [
        {
          "internalType": "string",
          "name": "",
          "type": "string"
        }
      ],
      "stateMutability": "view",
      "type": "function"
    },
    {
      "inputs": [
        {
          "internalType": "uint256",
          "name": "tokenId",
          "type": "uint256"
        }
      ],
      "name": "tokenURI",
      "outputs": [
        {
          "internalType": "string",
          "name": "",
          "type": "string"
        }
      ],
      "stateMutability": "view",
      "type": "function"
    },
    {
      "inputs": [
        {
          "internalType": "address",
          "name": "from",
          "type": "address"
        },
        {
          "internalType": "address",
          "name": "to",
          "type": "address"
        },
        {
          "internalType": "uint256",
          "name": "tokenId",
          "type": "uint256"
        }
      ],
      "name": "transferFrom",
      "outputs": [],
      "stateMutability": "nonpayable",
      "type": "function"
    }
  ],
  "bytecode": "0x60806040523480156200001157600080fd5b5060405162002ed738038062002ed78339818101604052810190620000379190620001e6565b6040518060400160405280600f81526020017f4d657461766572736520546f6b656e00000000000000000000000000000000008152506040518060400160405280600381526020017f4d545400000000000000000000000000000000000000000000000000000000008152508160009080519060200190620000bb9291906200011f565b508060019080519060200190620000d49291906200011f565b50505080600860006101000a81548173ffffffffffffffffffffffffffffffffffffffff021916908373ffffffffffffffffffffffffffffffffffffffff16021790555050620002c5565b8280546200012d9062000246565b90600052602060002090601f0160209004810192826200015157600085556200019d565b82601f106200016c57805160ff19168380011785556200019d565b828001600101855582156200019d579182015b828111156200019c5782518255916020019190600101906200017f565b5b509050620001ac9190620001b0565b5090565b5b80821115620001cb576000816000905550600101620001b1565b5090565b600081519050620001e081620002ab565b92915050565b600060208284031215620001f957600080fd5b60006200020984828501620001cf565b91505092915050565b60006200021f8262000226565b9050919050565b600073ffffffffffffffffffffffffffffffffffffffff82169050919050565b600060028204905060018216806200025f57607f821691505b602082108114156200027657620002756200027c565b5b50919050565b7f4e487b7100000000000000000000000000000000000000000000000000000000600052602260045260246000fd5b620002b68162000212565b8114620002c257600080fd5b50565b612c0280620002d56000396000f3fe608060405234801561001057600080fd5b50600436106100f55760003560e01c80636352211e11610097578063b88d4fde11610066578063b88d4fde14610296578063c87b56dd146102b2578063e985e9c5146102e2578063f6b4dfb414610312576100f5565b80636352211e146101fc57806370a082311461022c57806395d89b411461025c578063a22cb4651461027a576100f5565b8063095ea7b3116100d3578063095ea7b31461017857806323b872dd1461019457806342842e0e146101b057806345576f94146101cc576100f5565b806301ffc9a7146100fa57806306fdde031461012a578063081812fc14610148575b600080fd5b610114600480360381019061010f9190611c6e565b610330565b60405161012191906120b5565b60405180910390f35b610132610412565b60405161013f91906120d0565b60405180910390f35b610162600480360381019061015d9190611d01565b6104a4565b60405161016f919061204e565b60405180910390f35b610192600480360381019061018d9190611c32565b610529565b005b6101ae60048036038101906101a99190611b2c565b610641565b005b6101ca60048036038101906101c59190611b2c565b6106a1565b005b6101e660048036038101906101e19190611cc0565b6106c1565b6040516101f391906122f2565b60405180910390f35b61021660048036038101906102119190611d01565b610725565b604051610223919061204e565b60405180910390f35b61024660048036038101906102419190611ac7565b6107d7565b60405161025391906122f2565b60405180910390f35b61026461088f565b60405161027191906120d0565b60405180910390f35b610294600480360381019061028f9190611bf6565b610921565b005b6102b060048036038101906102ab9190611b7b565b610937565b005b6102cc60048036038101906102c79190611d01565b610999565b6040516102d991906120d0565b60405180910390f35b6102fc60048036038101906102f79190611af0565b610aeb565b60405161030991906120b5565b60405180910390f35b61031a610b7f565b604051610327919061204e565b60405180910390f35b60007f80ac58cd000000000000000000000000000000000000000000000000000000007bffffffffffffffffffffffffffffffffffffffffffffffffffffffff1916827bffffffffffffffffffffffffffffffffffffffffffffffffffffffff191614806103fb57507f5b5e139f000000000000000000000000000000000000000000000000000000007bffffffffffffffffffffffffffffffffffffffffffffffffffffffff1916827bffffffffffffffffffffffffffffffffffffffffffffffffffffffff1916145b8061040b575061040a82610ba5565b5b9050919050565b60606000805461042190612548565b80601f016020809104026020016040519081016040528092919081815260200182805461044d90612548565b801561049a5780601f1061046f5761010080835404028352916020019161049a565b820191906000526020600020905b81548152906001019060200180831161047d57829003601f168201915b5050505050905090565b60006104af82610c0f565b6104ee576040517f08c379a00000000000000000000000000000000000000000000000000000000081526004016104e590612272565b60405180910390fd5b6004600083815260200190815260200160002060009054906101000a900473ffffffffffffffffffffffffffffffffffffffff169050919050565b600061053482610725565b90508073ffffffffffffffffffffffffffffffffffffffff168373ffffffffffffffffffffffffffffffffffffffff1614156105a5576040517f08c379a000000000000000000000000000000000000000000000000000000000815260040161059c906122b2565b60405180910390fd5b8073ffffffffffffffffffffffffffffffffffffffff166105c4610c7b565b73ffffffffffffffffffffffffffffffffffffffff1614806105f357506105f2816105ed610c7b565b610aeb565b5b610632576040517f08c379a0000000000000000000000000000000000000000000000000000000008152600401610629906121b2565b60405180910390fd5b61063c8383610c83565b505050565b61065261064c610c7b565b82610d3c565b610691576040517f08c379a0000000000000000000000000000000000000000000000000000000008152600401610688906122d2565b60405180910390fd5b61069c838383610e1a565b505050565b6106bc83838360405180602001604052806000815250610937565b505050565b60006106cd6007611081565b60006106d96007611097565b90506106e533826110a5565b6106ef818461127f565b61071c600860009054906101000a900473ffffffffffffffffffffffffffffffffffffffff166001610921565b80915050919050565b6000806002600084815260200190815260200160002060009054906101000a900473ffffffffffffffffffffffffffffffffffffffff169050600073ffffffffffffffffffffffffffffffffffffffff168173ffffffffffffffffffffffffffffffffffffffff1614156107ce576040517f08c379a00000000000000000000000000000000000000000000000000000000081526004016107c5906121f2565b60405180910390fd5b80915050919050565b60008073ffffffffffffffffffffffffffffffffffffffff168273ffffffffffffffffffffffffffffffffffffffff161415610848576040517f08c379a000000000000000000000000000000000000000000000000000000000815260040161083f906121d2565b60405180910390fd5b600360008373ffffffffffffffffffffffffffffffffffffffff1673ffffffffffffffffffffffffffffffffffffffff168152602001908152602001600020549050919050565b60606001805461089e90612548565b80601f01602080910402602001604051908101604052809291908181526020018280546108ca90612548565b80156109175780601f106108ec57610100808354040283529160200191610917565b820191906000526020600020905b8154815290600101906020018083116108fa57829003601f168201915b5050505050905090565b61093361092c610c7b565b83836112f3565b5050565b610948610942610c7b565b83610d3c565b610987576040517f08c379a000000000000000000000000000000000000000000000000000000000815260040161097e906122d2565b60405180910390fd5b61099384848484611460565b50505050565b60606109a482610c0f565b6109e3576040517f08c379a00000000000000000000000000000000000000000000000000000000081526004016109da90612252565b60405180910390fd5b6000600660008481526020019081526020016000208054610a0390612548565b80601f0160208091040260200160405190810160405280929190818152602001828054610a2f90612548565b8015610a7c5780601f10610a5157610100808354040283529160200191610a7c565b820191906000526020600020905b815481529060010190602001808311610a5f57829003601f168201915b505050505090506000610a8d6114bc565b9050600081511415610aa3578192505050610ae6565b600082511115610ad8578082604051602001610ac092919061202a565b60405160208183030381529060405292505050610ae6565b610ae1846114d3565b925050505b919050565b6000600560008473ffffffffffffffffffffffffffffffffffffffff1673ffffffffffffffffffffffffffffffffffffffff16815260200190815260200160002060008373ffffffffffffffffffffffffffffffffffffffff1673ffffffffffffffffffffffffffffffffffffffff16815260200190815260200160002060009054906101000a900460ff16905092915050565b600860009054906101000a900473ffffffffffffffffffffffffffffffffffffffff1681565b60007f01ffc9a7000000000000000000000000000000000000000000000000000000007bffffffffffffffffffffffffffffffffffffffffffffffffffffffff1916827bffffffffffffffffffffffffffffffffffffffffffffffffffffffff1916149050919050565b60008073ffffffffffffffffffffffffffffffffffffffff166002600084815260200190815260200160002060009054906101000a900473ffffffffffffffffffffffffffffffffffffffff1673ffffffffffffffffffffffffffffffffffffffff1614159050919050565b600033905090565b816004600083815260200190815260200160002060006101000a81548173ffffffffffffffffffffffffffffffffffffffff021916908373ffffffffffffffffffffffffffffffffffffffff160217905550808273ffffffffffffffffffffffffffffffffffffffff16610cf683610725565b73ffffffffffffffffffffffffffffffffffffffff167f8c5be1e5ebec7d5bd14f71427d1e84f3dd0314c0f7b2291e5b200ac8c7c3b92560405160405180910390a45050565b6000610d4782610c0f565b610d86576040517f08c379a0000000000000000000000000000000000000000000000000000000008152600401610d7d90612192565b60405180910390fd5b6000610d9183610725565b90508073ffffffffffffffffffffffffffffffffffffffff168473ffffffffffffffffffffffffffffffffffffffff161480610dd35750610dd28185610aeb565b5b80610e1157508373ffffffffffffffffffffffffffffffffffffffff16610df9846104a4565b73ffffffffffffffffffffffffffffffffffffffff16145b91505092915050565b8273ffffffffffffffffffffffffffffffffffffffff16610e3a82610725565b73ffffffffffffffffffffffffffffffffffffffff1614610e90576040517f08c379a0000000000000000000000000000000000000000000000000000000008152600401610e8790612112565b60405180910390fd5b600073ffffffffffffffffffffffffffffffffffffffff168273ffffffffffffffffffffffffffffffffffffffff161415610f00576040517f08c379a0000000000000000000000000000000000000000000000000000000008152600401610ef790612152565b60405180910390fd5b610f0b83838361157a565b610f16600082610c83565b6001600360008573ffffffffffffffffffffffffffffffffffffffff1673ffffffffffffffffffffffffffffffffffffffff1681526020019081526020016000206000828254610f66919061245e565b925050819055506001600360008473ffffffffffffffffffffffffffffffffffffffff1673ffffffffffffffffffffffffffffffffffffffff1681526020019081526020016000206000828254610fbd91906123d7565b92505081905550816002600083815260200190815260200160002060006101000a81548173ffffffffffffffffffffffffffffffffffffffff021916908373ffffffffffffffffffffffffffffffffffffffff160217905550808273ffffffffffffffffffffffffffffffffffffffff168473ffffffffffffffffffffffffffffffffffffffff167fddf252ad1be2c89b69c2b068fc378daa952ba7f163c4a11628f55a4df523b3ef60405160405180910390a461107c83838361157f565b505050565b6001816000016000828254019250508190555050565b600081600001549050919050565b600073ffffffffffffffffffffffffffffffffffffffff168273ffffffffffffffffffffffffffffffffffffffff161415611115576040517f08c379a000000000000000000000000000000000000000000000000000000000815260040161110c90612232565b60405180910390fd5b61111e81610c0f565b1561115e576040517f08c379a000000000000000000000000000000000000000000000000000000000815260040161115590612132565b60405180910390fd5b61116a6000838361157a565b6001600360008473ffffffffffffffffffffffffffffffffffffffff1673ffffffffffffffffffffffffffffffffffffffff16815260200190815260200160002060008282546111ba91906123d7565b92505081905550816002600083815260200190815260200160002060006101000a81548173ffffffffffffffffffffffffffffffffffffffff021916908373ffffffffffffffffffffffffffffffffffffffff160217905550808273ffffffffffffffffffffffffffffffffffffffff16600073ffffffffffffffffffffffffffffffffffffffff167fddf252ad1be2c89b69c2b068fc378daa952ba7f163c4a11628f55a4df523b3ef60405160405180910390a461127b6000838361157f565b5050565b61128882610c0f565b6112c7576040517f08c379a00000000000000000000000000000000000000000000000000000000081526004016112be90612212565b60405180910390fd5b806006600084815260200190815260200160002090805190602001906112ee9291906118eb565b505050565b8173ffffffffffffffffffffffffffffffffffffffff168373ffffffffffffffffffffffffffffffffffffffff161415611362576040517f08c379a000000000000000000000000000000000000000000000000000000000815260040161135990612172565b60405180910390fd5b80600560008573ffffffffffffffffffffffffffffffffffffffff1673ffffffffffffffffffffffffffffffffffffffff16815260200190815260200160002060008473ffffffffffffffffffffffffffffffffffffffff1673ffffffffffffffffffffffffffffffffffffffff16815260200190815260200160002060006101000a81548160ff0219169083151502179055508173ffffffffffffffffffffffffffffffffffffffff168373ffffffffffffffffffffffffffffffffffffffff167f17307eab39ab6107e8899845ad3d59bd9653f200f220920489ca2b5937696c318360405161145391906120b5565b60405180910390a3505050565b61146b848484610e1a565b61147784848484611584565b6114b6576040517f08c379a00000000000000000000000000000000000000000000000000000000081526004016114ad906120f2565b60405180910390fd5b50505050565b606060405180602001604052806000815250905090565b60606114de82610c0f565b61151d576040517f08c379a000000000000000000000000000000000000000000000000000000000815260040161151490612292565b60405180910390fd5b60006115276114bc565b905060008151116115475760405180602001604052806000815250611572565b806115518461171b565b60405160200161156292919061202a565b6040516020818303038152906040525b915050919050565b505050565b505050565b60006115a58473ffffffffffffffffffffffffffffffffffffffff166118c8565b1561170e578373ffffffffffffffffffffffffffffffffffffffff1663150b7a026115ce610c7b565b8786866040518563ffffffff1660e01b81526004016115f09493929190612069565b602060405180830381600087803b15801561160a57600080fd5b505af192505050801561163b57506040513d601f19601f820116820180604052508101906116389190611c97565b60015b6116be573d806000811461166b576040519150601f19603f3d011682016040523d82523d6000602084013e611670565b606091505b506000815114156116b6576040517f08c379a00000000000000000000000000000000000000000000000000000000081526004016116ad906120f2565b60405180910390fd5b805181602001fd5b63150b7a0260e01b7bffffffffffffffffffffffffffffffffffffffffffffffffffffffff1916817bffffffffffffffffffffffffffffffffffffffffffffffffffffffff191614915050611713565b600190505b949350505050565b60606000821415611763576040518060400160405280600181526020017f300000000000000000000000000000000000000000000000000000000000000081525090506118c3565b600082905060005b6000821461179557808061177e906125ab565b915050600a8261178e919061242d565b915061176b565b60008167ffffffffffffffff8111156117d7577f4e487b7100000000000000000000000000000000000000000000000000000000600052604160045260246000fd5b6040519080825280601f01601f1916602001820160405280156118095781602001600182028036833780820191505090505b5090505b600085146118bc57600182611822919061245e565b9150600a8561183191906125f4565b603061183d91906123d7565b60f81b818381518110611879577f4e487b7100000000000000000000000000000000000000000000000000000000600052603260045260246000fd5b60200101907effffffffffffffffffffffffffffffffffffffffffffffffffffffffffffff1916908160001a905350600a856118b5919061242d565b945061180d565b8093505050505b919050565b6000808273ffffffffffffffffffffffffffffffffffffffff163b119050919050565b8280546118f790612548565b90600052602060002090601f0160209004810192826119195760008555611960565b82601f1061193257805160ff1916838001178555611960565b82800160010185558215611960579182015b8281111561195f578251825591602001919060010190611944565b5b50905061196d9190611971565b5090565b5b8082111561198a576000816000905550600101611972565b5090565b60006119a161199c84612332565b61230d565b9050828152602081018484840111156119b957600080fd5b6119c4848285612506565b509392505050565b60006119df6119da84612363565b61230d565b9050828152602081018484840111156119f757600080fd5b611a02848285612506565b509392505050565b600081359050611a1981612b70565b92915050565b600081359050611a2e81612b87565b92915050565b600081359050611a4381612b9e565b92915050565b600081519050611a5881612b9e565b92915050565b600082601f830112611a6f57600080fd5b8135611a7f84826020860161198e565b91505092915050565b600082601f830112611a9957600080fd5b8135611aa98482602086016119cc565b91505092915050565b600081359050611ac181612bb5565b92915050565b600060208284031215611ad957600080fd5b6000611ae784828501611a0a565b91505092915050565b60008060408385031215611b0357600080fd5b6000611b1185828601611a0a565b9250506020611b2285828601611a0a565b9150509250929050565b600080600060608486031215611b4157600080fd5b6000611b4f86828701611a0a565b9350506020611b6086828701611a0a565b9250506040611b7186828701611ab2565b9150509250925092565b60008060008060808587031215611b9157600080fd5b6000611b9f87828801611a0a565b9450506020611bb087828801611a0a565b9350506040611bc187828801611ab2565b925050606085013567ffffffffffffffff811115611bde57600080fd5b611bea87828801611a5e565b91505092959194509250565b60008060408385031215611c0957600080fd5b6000611c1785828601611a0a565b9250506020611c2885828601611a1f565b9150509250929050565b60008060408385031215611c4557600080fd5b6000611c5385828601611a0a565b9250506020611c6485828601611ab2565b9150509250929050565b600060208284031215611c8057600080fd5b6000611c8e84828501611a34565b91505092915050565b600060208284031215611ca957600080fd5b6000611cb784828501611a49565b91505092915050565b600060208284031215611cd257600080fd5b600082013567ffffffffffffffff811115611cec57600080fd5b611cf884828501611a88565b91505092915050565b600060208284031215611d1357600080fd5b6000611d2184828501611ab2565b91505092915050565b611d3381612492565b82525050565b611d42816124a4565b82525050565b6000611d5382612394565b611d5d81856123aa565b9350611d6d818560208601612515565b611d76816126e1565b840191505092915050565b6000611d8c8261239f565b611d9681856123bb565b9350611da6818560208601612515565b611daf816126e1565b840191505092915050565b6000611dc58261239f565b611dcf81856123cc565b9350611ddf818560208601612515565b80840191505092915050565b6000611df86032836123bb565b9150611e03826126f2565b604082019050919050565b6000611e1b6025836123bb565b9150611e2682612741565b604082019050919050565b6000611e3e601c836123bb565b9150611e4982612790565b602082019050919050565b6000611e616024836123bb565b9150611e6c826127b9565b604082019050919050565b6000611e846019836123bb565b9150611e8f82612808565b602082019050919050565b6000611ea7602c836123bb565b9150611eb282612831565b604082019050919050565b6000611eca6038836123bb565b9150611ed582612880565b604082019050919050565b6000611eed602a836123bb565b9150611ef8826128cf565b604082019050919050565b6000611f106029836123bb565b9150611f1b8261291e565b604082019050919050565b6000611f33602e836123bb565b9150611f3e8261296d565b604082019050919050565b6000611f566020836123bb565b9150611f61826129bc565b602082019050919050565b6000611f796031836123bb565b9150611f84826129e5565b604082019050919050565b6000611f9c602c836123bb565b9150611fa782612a34565b604082019050919050565b6000611fbf602f836123bb565b9150611fca82612a83565b604082019050919050565b6000611fe26021836123bb565b9150611fed82612ad2565b604082019050919050565b60006120056031836123bb565b915061201082612b21565b604082019050919050565b612024816124fc565b82525050565b60006120368285611dba565b91506120428284611dba565b91508190509392505050565b60006020820190506120636000830184611d2a565b92915050565b600060808201905061207e6000830187611d2a565b61208b6020830186611d2a565b612098604083018561201b565b81810360608301526120aa8184611d48565b905095945050505050565b60006020820190506120ca6000830184611d39565b92915050565b600060208201905081810360008301526120ea8184611d81565b905092915050565b6000602082019050818103600083015261210b81611deb565b9050919050565b6000602082019050818103600083015261212b81611e0e565b9050919050565b6000602082019050818103600083015261214b81611e31565b9050919050565b6000602082019050818103600083015261216b81611e54565b9050919050565b6000602082019050818103600083015261218b81611e77565b9050919050565b600060208201905081810360008301526121ab81611e9a565b9050919050565b600060208201905081810360008301526121cb81611ebd565b9050919050565b600060208201905081810360008301526121eb81611ee0565b9050919050565b6000602082019050818103600083015261220b81611f03565b9050919050565b6000602082019050818103600083015261222b81611f26565b9050919050565b6000602082019050818103600083015261224b81611f49565b9050919050565b6000602082019050818103600083015261226b81611f6c565b9050919050565b6000602082019050818103600083015261228b81611f8f565b9050919050565b600060208201905081810360008301526122ab81611fb2565b9050919050565b600060208201905081810360008301526122cb81611fd5565b9050919050565b600060208201905081810360008301526122eb81611ff8565b9050919050565b6000602082019050612307600083018461201b565b92915050565b6000612317612328565b9050612323828261257a565b919050565b6000604051905090565b600067ffffffffffffffff82111561234d5761234c6126b2565b5b612356826126e1565b9050602081019050919050565b600067ffffffffffffffff82111561237e5761237d6126b2565b5b612387826126e1565b9050602081019050919050565b600081519050919050565b600081519050919050565b600082825260208201905092915050565b600082825260208201905092915050565b600081905092915050565b60006123e2826124fc565b91506123ed836124fc565b9250827fffffffffffffffffffffffffffffffffffffffffffffffffffffffffffffffff0382111561242257612421612625565b5b828201905092915050565b6000612438826124fc565b9150612443836124fc565b92508261245357612452612654565b5b828204905092915050565b6000612469826124fc565b9150612474836124fc565b92508282101561248757612486612625565b5b828203905092915050565b600061249d826124dc565b9050919050565b60008115159050919050565b60007fffffffff0000000000000000000000000000000000000000000000000000000082169050919050565b600073ffffffffffffffffffffffffffffffffffffffff82169050919050565b6000819050919050565b82818337600083830152505050565b60005b83811015612533578082015181840152602081019050612518565b83811115612542576000848401525b50505050565b6000600282049050600182168061256057607f821691505b6020821081141561257457612573612683565b5b50919050565b612583826126e1565b810181811067ffffffffffffffff821117156125a2576125a16126b2565b5b80604052505050565b60006125b6826124fc565b91507fffffffffffffffffffffffffffffffffffffffffffffffffffffffffffffffff8214156125e9576125e8612625565b5b600182019050919050565b60006125ff826124fc565b915061260a836124fc565b92508261261a57612619612654565b5b828206905092915050565b7f4e487b7100000000000000000000000000000000000000000000000000000000600052601160045260246000fd5b7f4e487b7100000000000000000000000000000000000000000000000000000000600052601260045260246000fd5b7f4e487b7100000000000000000000000000000000000000000000000000000000600052602260045260246000fd5b7f4e487b7100000000000000000000000000000000000000000000000000000000600052604160045260246000fd5b6000601f19601f8301169050919050565b7f4552433732313a207472616e7366657220746f206e6f6e20455243373231526560008201527f63656976657220696d706c656d656e7465720000000000000000000000000000602082015250565b7f4552433732313a207472616e736665722066726f6d20696e636f72726563742060008201527f6f776e6572000000000000000000000000000000000000000000000000000000602082015250565b7f4552433732313a20746f6b656e20616c7265616479206d696e74656400000000600082015250565b7f4552433732313a207472616e7366657220746f20746865207a65726f2061646460008201527f7265737300000000000000000000000000000000000000000000000000000000602082015250565b7f4552433732313a20617070726f766520746f2063616c6c657200000000000000600082015250565b7f4552433732313a206f70657261746f7220717565727920666f72206e6f6e657860008201527f697374656e7420746f6b656e0000000000000000000000000000000000000000602082015250565b7f4552433732313a20617070726f76652063616c6c6572206973206e6f74206f7760008201527f6e6572206e6f7220617070726f76656420666f7220616c6c0000000000000000602082015250565b7f4552433732313a2062616c616e636520717565727920666f7220746865207a6560008201527f726f206164647265737300000000000000000000000000000000000000000000602082015250565b7f4552433732313a206f776e657220717565727920666f72206e6f6e657869737460008201527f656e7420746f6b656e0000000000000000000000000000000000000000000000602082015250565b7f45524337323155524953746f726167653a2055524920736574206f66206e6f6e60008201527f6578697374656e7420746f6b656e000000000000000000000000000000000000602082015250565b7f4552433732313a206d696e7420746f20746865207a65726f2061646472657373600082015250565b7f45524337323155524953746f726167653a2055524920717565727920666f722060008201527f6e6f6e6578697374656e7420746f6b656e000000000000000000000000000000602082015250565b7f4552433732313a20617070726f76656420717565727920666f72206e6f6e657860008201527f697374656e7420746f6b656e0000000000000000000000000000000000000000602082015250565b7f4552433732314d657461646174613a2055524920717565727920666f72206e6f60008201527f6e6578697374656e7420746f6b656e0000000000000000000000000000000000602082015250565b7f4552433732313a20617070726f76616c20746f2063757272656e74206f776e6560008201527f7200000000000000000000000000000000000000000000000000000000000000602082015250565b7f4552433732313a207472616e736665722063616c6c6572206973206e6f74206f60008201527f776e6572206e6f7220617070726f766564000000000000000000000000000000602082015250565b612b7981612492565b8114612b8457600080fd5b50565b612b90816124a4565b8114612b9b57600080fd5b50565b612ba7816124b0565b8114612bb257600080fd5b50565b612bbe816124fc565b8114612bc957600080fd5b5056fea2646970667358221220d640e77ff46c6efc75f1a7e43cfd791af1e4e842647f987cbc76f326f5b188d364736f6c63430008040033",
  "linkReferences": {},
  "deployedLinkReferences": {}
}