{
  "_format": "hh-sol-artifact-1",
  "contractName": "NFTMarket",
  "sourceName": "contracts/NFTMarket.sol",
  "abi": [
    {
      "inputs": [],
      "stateMutability": "nonpayable",
      "type": "constructor"
    },
    {
      "anonymous": false,
      "inputs": [
        {
          "indexed": true,
          "internalType": "uint256",
          "name": "itemId",
          "type": "uint256"
        },
        {
          "indexed": true,
          "internalType": "address",
          "name": "nftContract",
          "type": "address"
        },
        {
          "indexed": true,
          "internalType": "uint256",
          "name": "tokenId",
          "type": "uint256"
        },
        {
          "indexed": false,
          "internalType": "address",
          "name": "seller",
          "type": "address"
        },
        {
          "indexed": false,
          "internalType": "address",
          "name": "owner",
          "type": "address"
        },
        {
          "indexed": false,
          "internalType": "uint256",
          "name": "price",
          "type": "uint256"
        },
        {
          "indexed": false,
          "internalType": "bool",
          "name": "sold",
          "type": "bool"
        }
      ],
      "name": "MarketItemCreated",
      "type": "event"
    },
    {
      "inputs": [
        {
          "internalType": "address",
          "name": "nftContract",
          "type": "address"
        },
        {
          "internalType": "uint256",
          "name": "tokenId",
          "type": "uint256"
        },
        {
          "internalType": "uint256",
          "name": "price",
          "type": "uint256"
        }
      ],
      "name": "createMarketItem",
      "outputs": [],
      "stateMutability": "payable",
      "type": "function"
    },
    {
      "inputs": [
        {
          "internalType": "address",
          "name": "nftContractAddress",
          "type": "address"
        },
        {
          "internalType": "uint256",
          "name": "itemId",
          "type": "uint256"
        }
      ],
      "name": "createMarketSale",
      "outputs": [],
      "stateMutability": "payable",
      "type": "function"
    },
    {
      "inputs": [],
      "name": "fetchItemsCreated",
      "outputs": [
        {
          "components": [
            {
              "internalType": "uint256",
              "name": "itemId",
              "type": "uint256"
            },
            {
              "internalType": "address",
              "name": "nftContract",
              "type": "address"
            },
            {
              "internalType": "uint256",
              "name": "tokenId",
              "type": "uint256"
            },
            {
              "internalType": "address payable",
              "name": "seller",
              "type": "address"
            },
            {
              "internalType": "address payable",
              "name": "owner",
              "type": "address"
            },
            {
              "internalType": "uint256",
              "name": "price",
              "type": "uint256"
            },
            {
              "internalType": "bool",
              "name": "sold",
              "type": "bool"
            }
          ],
          "internalType": "struct NFTMarket.MarketItem[]",
          "name": "",
          "type": "tuple[]"
        }
      ],
      "stateMutability": "view",
      "type": "function"
    },
    {
      "inputs": [],
      "name": "fetchMarketItems",
      "outputs": [
        {
          "components": [
            {
              "internalType": "uint256",
              "name": "itemId",
              "type": "uint256"
            },
            {
              "internalType": "address",
              "name": "nftContract",
              "type": "address"
            },
            {
              "internalType": "uint256",
              "name": "tokenId",
              "type": "uint256"
            },
            {
              "internalType": "address payable",
              "name": "seller",
              "type": "address"
            },
            {
              "internalType": "address payable",
              "name": "owner",
              "type": "address"
            },
            {
              "internalType": "uint256",
              "name": "price",
              "type": "uint256"
            },
            {
              "internalType": "bool",
              "name": "sold",
              "type": "bool"
            }
          ],
          "internalType": "struct NFTMarket.MarketItem[]",
          "name": "",
          "type": "tuple[]"
        }
      ],
      "stateMutability": "view",
      "type": "function"
    },
    {
      "inputs": [],
      "name": "fetchMyNFTs",
      "outputs": [
        {
          "components": [
            {
              "internalType": "uint256",
              "name": "itemId",
              "type": "uint256"
            },
            {
              "internalType": "address",
              "name": "nftContract",
              "type": "address"
            },
            {
              "internalType": "uint256",
              "name": "tokenId",
              "type": "uint256"
            },
            {
              "internalType": "address payable",
              "name": "seller",
              "type": "address"
            },
            {
              "internalType": "address payable",
              "name": "owner",
              "type": "address"
            },
            {
              "internalType": "uint256",
              "name": "price",
              "type": "uint256"
            },
            {
              "internalType": "bool",
              "name": "sold",
              "type": "bool"
            }
          ],
          "internalType": "struct NFTMarket.MarketItem[]",
          "name": "",
          "type": "tuple[]"
        }
      ],
      "stateMutability": "view",
      "type": "function"
    },
    {
      "inputs": [],
      "name": "getListingPrice",
      "outputs": [
        {
          "internalType": "string",
          "name": "",
          "type": "string"
        }
      ],
      "stateMutability": "view",
      "type": "function"
    },
    {
      "inputs": [],
      "name": "listingPrice",
      "outputs": [
        {
          "internalType": "uint256",
          "name": "",
          "type": "uint256"
        }
      ],
      "stateMutability": "view",
      "type": "function"
    }
  ],
  "bytecode": "0x608060405265e35fa931a00060045534801561001a57600080fd5b50600160008190555033600360006101000a81548173ffffffffffffffffffffffffffffffffffffffff021916908373ffffffffffffffffffffffffffffffffffffffff160217905550611c60806100736000396000f3fe6080604052600436106100705760003560e01c806358eb2df51161004e57806358eb2df5146100f6578063c23b139e14610112578063c78f19f91461012e578063f064c32e1461015957610070565b80630f08efe01461007557806312e85585146100a0578063202e3740146100cb575b600080fd5b34801561008157600080fd5b5061008a610184565b60405161009791906117bd565b60405180910390f35b3480156100ac57600080fd5b506100b561049a565b6040516100c291906117df565b60405180910390f35b3480156100d757600080fd5b506100e06104b2565b6040516100ed91906117bd565b60405180910390f35b610110600480360381019061010b91906114b1565b61084c565b005b61012c60048036038101906101279190611475565b610bb0565b005b34801561013a57600080fd5b50610143610e69565b6040516101509190611881565b60405180910390f35b34801561016557600080fd5b5061016e610e6f565b60405161017b91906117bd565b60405180910390f35b6060600061019260016111f9565b905060006101a060026111f9565b6101aa60016111f9565b6101b49190611978565b90506000808267ffffffffffffffff8111156101f9577f4e487b7100000000000000000000000000000000000000000000000000000000600052604160045260246000fd5b60405190808252806020026020018201604052801561023257816020015b61021f6113ca565b8152602001906001900390816102175790505b5090506000600190505b84811161048f57600073ffffffffffffffffffffffffffffffffffffffff166005600083815260200190815260200160002060040160009054906101000a900473ffffffffffffffffffffffffffffffffffffffff1673ffffffffffffffffffffffffffffffffffffffff16141561047c576000600560008381526020019081526020016000206000015490506000600560008381526020019081526020016000206040518060e0016040529081600082015481526020016001820160009054906101000a900473ffffffffffffffffffffffffffffffffffffffff1673ffffffffffffffffffffffffffffffffffffffff1673ffffffffffffffffffffffffffffffffffffffff168152602001600282015481526020016003820160009054906101000a900473ffffffffffffffffffffffffffffffffffffffff1673ffffffffffffffffffffffffffffffffffffffff1673ffffffffffffffffffffffffffffffffffffffff1681526020016004820160009054906101000a900473ffffffffffffffffffffffffffffffffffffffff1673ffffffffffffffffffffffffffffffffffffffff1673ffffffffffffffffffffffffffffffffffffffff168152602001600582015481526020016006820160009054906101000a900460ff161515151581525050905080848681518110610460577f4e487b7100000000000000000000000000000000000000000000000000000000600052603260045260246000fd5b6020026020010181905250848061047690611a6f565b95505050505b808061048790611a6f565b91505061023c565b508094505050505090565b606060006104a9600454611207565b90508091505090565b606060006104c060016111f9565b905060008060005b83811015610569573373ffffffffffffffffffffffffffffffffffffffff16600560006001846104f891906118f1565b815260200190815260200160002060040160009054906101000a900473ffffffffffffffffffffffffffffffffffffffff1673ffffffffffffffffffffffffffffffffffffffff1614156105565760018361055391906118f1565b92505b808061056190611a6f565b9150506104c8565b5060008267ffffffffffffffff8111156105ac577f4e487b7100000000000000000000000000000000000000000000000000000000600052604160045260246000fd5b6040519080825280602002602001820160405280156105e557816020015b6105d26113ca565b8152602001906001900390816105ca5790505b50905060005b84811015610841573373ffffffffffffffffffffffffffffffffffffffff166005600060018461061b91906118f1565b815260200190815260200160002060040160009054906101000a900473ffffffffffffffffffffffffffffffffffffffff1673ffffffffffffffffffffffffffffffffffffffff16141561082e57600060018261067891906118f1565b90506000600560008381526020019081526020016000209050806040518060e0016040529081600082015481526020016001820160009054906101000a900473ffffffffffffffffffffffffffffffffffffffff1673ffffffffffffffffffffffffffffffffffffffff1673ffffffffffffffffffffffffffffffffffffffff168152602001600282015481526020016003820160009054906101000a900473ffffffffffffffffffffffffffffffffffffffff1673ffffffffffffffffffffffffffffffffffffffff1673ffffffffffffffffffffffffffffffffffffffff1681526020016004820160009054906101000a900473ffffffffffffffffffffffffffffffffffffffff1673ffffffffffffffffffffffffffffffffffffffff1673ffffffffffffffffffffffffffffffffffffffff168152602001600582015481526020016006820160009054906101000a900460ff161515151581525050848681518110610811577f4e487b7100000000000000000000000000000000000000000000000000000000600052603260045260246000fd5b602002602001018190525060018561082991906118f1565b945050505b808061083990611a6f565b9150506105eb565b508094505050505090565b60026000541415610892576040517f08c379a000000000000000000000000000000000000000000000000000000000815260040161088990611841565b60405180910390fd5b6002600081905550600081116108dd576040517f08c379a00000000000000000000000000000000000000000000000000000000081526004016108d490611821565b60405180910390fd5b6004543414610921576040517f08c379a000000000000000000000000000000000000000000000000000000000815260040161091890611861565b60405180910390fd5b61092b60016113b4565b600061093760016111f9565b90506040518060e001604052808281526020018573ffffffffffffffffffffffffffffffffffffffff1681526020018481526020013373ffffffffffffffffffffffffffffffffffffffff168152602001600073ffffffffffffffffffffffffffffffffffffffff16815260200183815260200160001515815250600560008381526020019081526020016000206000820151816000015560208201518160010160006101000a81548173ffffffffffffffffffffffffffffffffffffffff021916908373ffffffffffffffffffffffffffffffffffffffff1602179055506040820151816002015560608201518160030160006101000a81548173ffffffffffffffffffffffffffffffffffffffff021916908373ffffffffffffffffffffffffffffffffffffffff16021790555060808201518160040160006101000a81548173ffffffffffffffffffffffffffffffffffffffff021916908373ffffffffffffffffffffffffffffffffffffffff16021790555060a0820151816005015560c08201518160060160006101000a81548160ff0219169083151502179055509050508373ffffffffffffffffffffffffffffffffffffffff166323b872dd3330866040518463ffffffff1660e01b8152600401610b1893929190611786565b600060405180830381600087803b158015610b3257600080fd5b505af1158015610b46573d6000803e3d6000fd5b50505050828473ffffffffffffffffffffffffffffffffffffffff16827f045dfa01dcba2b36aba1d3dc4a874f4b0c5d2fbeb8d2c4b34a7d88c8d8f929d1336000876000604051610b9a9493929190611741565b60405180910390a4506001600081905550505050565b60026000541415610bf6576040517f08c379a0000000000000000000000000000000000000000000000000000000008152600401610bed90611841565b60405180910390fd5b6002600081905550600060056000838152602001908152602001600020600501549050600060056000848152602001908152602001600020600201549050813414610c76576040517f08c379a0000000000000000000000000000000000000000000000000000000008152600401610c6d90611801565b60405180910390fd5b6005600084815260200190815260200160002060030160009054906101000a900473ffffffffffffffffffffffffffffffffffffffff1673ffffffffffffffffffffffffffffffffffffffff166108fc349081150290604051600060405180830381858888f19350505050158015610cf2573d6000803e3d6000fd5b508373ffffffffffffffffffffffffffffffffffffffff166323b872dd3033846040518463ffffffff1660e01b8152600401610d3093929190611786565b600060405180830381600087803b158015610d4a57600080fd5b505af1158015610d5e573d6000803e3d6000fd5b50505050336005600085815260200190815260200160002060040160006101000a81548173ffffffffffffffffffffffffffffffffffffffff021916908373ffffffffffffffffffffffffffffffffffffffff16021790555060016005600085815260200190815260200160002060060160006101000a81548160ff021916908315150217905550610df060026113b4565b600360009054906101000a900473ffffffffffffffffffffffffffffffffffffffff1673ffffffffffffffffffffffffffffffffffffffff166108fc6004549081150290604051600060405180830381858888f19350505050158015610e5a573d6000803e3d6000fd5b50505060016000819055505050565b60045481565b60606000610e7d60016111f9565b90506000806000600190505b838111610f1c573373ffffffffffffffffffffffffffffffffffffffff166005600083815260200190815260200160002060030160009054906101000a900473ffffffffffffffffffffffffffffffffffffffff1673ffffffffffffffffffffffffffffffffffffffff161415610f09578280610f0590611a6f565b9350505b8080610f1490611a6f565b915050610e89565b5060008267ffffffffffffffff811115610f5f577f4e487b7100000000000000000000000000000000000000000000000000000000600052604160045260246000fd5b604051908082528060200260200182016040528015610f9857816020015b610f856113ca565b815260200190600190039081610f7d5790505b5090506000600190505b8481116111ee573373ffffffffffffffffffffffffffffffffffffffff166005600083815260200190815260200160002060030160009054906101000a900473ffffffffffffffffffffffffffffffffffffffff1673ffffffffffffffffffffffffffffffffffffffff1614156111db57600060056000838152602001908152602001600020600001549050600560008281526020019081526020016000206040518060e0016040529081600082015481526020016001820160009054906101000a900473ffffffffffffffffffffffffffffffffffffffff1673ffffffffffffffffffffffffffffffffffffffff1673ffffffffffffffffffffffffffffffffffffffff168152602001600282015481526020016003820160009054906101000a900473ffffffffffffffffffffffffffffffffffffffff1673ffffffffffffffffffffffffffffffffffffffff1673ffffffffffffffffffffffffffffffffffffffff1681526020016004820160009054906101000a900473ffffffffffffffffffffffffffffffffffffffff1673ffffffffffffffffffffffffffffffffffffffff1673ffffffffffffffffffffffffffffffffffffffff168152602001600582015481526020016006820160009054906101000a900460ff1615151515815250508385815181106111c0577f4e487b7100000000000000000000000000000000000000000000000000000000600052603260045260246000fd5b602002602001018190525083806111d690611a6f565b945050505b80806111e690611a6f565b915050610fa2565b508094505050505090565b600081600001549050919050565b6060600082141561124f576040518060400160405280600181526020017f300000000000000000000000000000000000000000000000000000000000000081525090506113af565b600082905060005b6000821461128157808061126a90611a6f565b915050600a8261127a9190611947565b9150611257565b60008167ffffffffffffffff8111156112c3577f4e487b7100000000000000000000000000000000000000000000000000000000600052604160045260246000fd5b6040519080825280601f01601f1916602001820160405280156112f55781602001600182028036833780820191505090505b5090505b600085146113a85760018261130e9190611978565b9150600a8561131d9190611ab8565b603061132991906118f1565b60f81b818381518110611365577f4e487b7100000000000000000000000000000000000000000000000000000000600052603260045260246000fd5b60200101907effffffffffffffffffffffffffffffffffffffffffffffffffffffffffffff1916908160001a905350600a856113a19190611947565b94506112f9565b8093505050505b919050565b6001816000016000828254019250508190555050565b6040518060e0016040528060008152602001600073ffffffffffffffffffffffffffffffffffffffff16815260200160008152602001600073ffffffffffffffffffffffffffffffffffffffff168152602001600073ffffffffffffffffffffffffffffffffffffffff168152602001600081526020016000151581525090565b60008135905061145a81611bfc565b92915050565b60008135905061146f81611c13565b92915050565b6000806040838503121561148857600080fd5b60006114968582860161144b565b92505060206114a785828601611460565b9150509250929050565b6000806000606084860312156114c657600080fd5b60006114d48682870161144b565b93505060206114e586828701611460565b92505060406114f686828701611460565b9150509250925092565b600061150c8383611695565b60e08301905092915050565b61152181611a06565b82525050565b611530816119be565b82525050565b61153f816119ac565b82525050565b61154e816119ac565b82525050565b600061155f826118ac565b61156981856118cf565b93506115748361189c565b8060005b838110156115a557815161158c8882611500565b9750611597836118c2565b925050600181019050611578565b5085935050505092915050565b6115bb816119d0565b82525050565b6115ca816119d0565b82525050565b60006115db826118b7565b6115e581856118e0565b93506115f5818560208601611a3c565b6115fe81611b47565b840191505092915050565b60006116166012836118e0565b915061162182611b58565b602082019050919050565b6000611639601d836118e0565b915061164482611b81565b602082019050919050565b600061165c601f836118e0565b915061166782611baa565b602082019050919050565b600061167f601e836118e0565b915061168a82611bd3565b602082019050919050565b60e0820160008201516116ab6000850182611723565b5060208201516116be6020850182611536565b5060408201516116d16040850182611723565b5060608201516116e46060850182611527565b5060808201516116f76080850182611527565b5060a082015161170a60a0850182611723565b5060c082015161171d60c08501826115b2565b50505050565b61172c816119fc565b82525050565b61173b816119fc565b82525050565b60006080820190506117566000830187611518565b6117636020830186611545565b6117706040830185611732565b61177d60608301846115c1565b95945050505050565b600060608201905061179b6000830186611545565b6117a86020830185611545565b6117b56040830184611732565b949350505050565b600060208201905081810360008301526117d78184611554565b905092915050565b600060208201905081810360008301526117f981846115d0565b905092915050565b6000602082019050818103600083015261181a81611609565b9050919050565b6000602082019050818103600083015261183a8161162c565b9050919050565b6000602082019050818103600083015261185a8161164f565b9050919050565b6000602082019050818103600083015261187a81611672565b9050919050565b60006020820190506118966000830184611732565b92915050565b6000819050602082019050919050565b600081519050919050565b600081519050919050565b6000602082019050919050565b600082825260208201905092915050565b600082825260208201905092915050565b60006118fc826119fc565b9150611907836119fc565b9250827fffffffffffffffffffffffffffffffffffffffffffffffffffffffffffffffff0382111561193c5761193b611ae9565b5b828201905092915050565b6000611952826119fc565b915061195d836119fc565b92508261196d5761196c611b18565b5b828204905092915050565b6000611983826119fc565b915061198e836119fc565b9250828210156119a1576119a0611ae9565b5b828203905092915050565b60006119b7826119dc565b9050919050565b60006119c9826119dc565b9050919050565b60008115159050919050565b600073ffffffffffffffffffffffffffffffffffffffff82169050919050565b6000819050919050565b6000611a1182611a18565b9050919050565b6000611a2382611a2a565b9050919050565b6000611a35826119dc565b9050919050565b60005b83811015611a5a578082015181840152602081019050611a3f565b83811115611a69576000848401525b50505050565b6000611a7a826119fc565b91507fffffffffffffffffffffffffffffffffffffffffffffffffffffffffffffffff821415611aad57611aac611ae9565b5b600182019050919050565b6000611ac3826119fc565b9150611ace836119fc565b925082611ade57611add611b18565b5b828206905092915050565b7f4e487b7100000000000000000000000000000000000000000000000000000000600052601160045260246000fd5b7f4e487b7100000000000000000000000000000000000000000000000000000000600052601260045260246000fd5b6000601f19601f8301169050919050565b7f49742773206e6f74207468652070726963650000000000000000000000000000600082015250565b7f50726963652073686f756c642062652061746c65617374203120776569000000600082015250565b7f5265656e7472616e637947756172643a207265656e7472616e742063616c6c00600082015250565b7f5072696365206973206e6f7420746865206c697374696e672070726963650000600082015250565b611c05816119ac565b8114611c1057600080fd5b50565b611c1c816119fc565b8114611c2757600080fd5b5056fea2646970667358221220b864b3644beedfe9e21df10ae6490760b49f12b5485c94bdb7647bc44e8f4a9264736f6c63430008040033",
  "linkReferences": {},
  "deployedLinkReferences": {}
}